:0300000002049D5A
:03000B000203E20B
:01001B0032B2
:01002B0032A2
:10002C00C0E0C0D0C000C001C002E4F538F539F51D
:10003C003AF53BF53C7A20E533A2E779047830E6D3
:10004C0033F608D9FA79057838E636D4F608D9F9B2
:10005C00DAE5D002D001D000D0D0D0E022C0E0C090
:10006C00D0C000C001C002E4F538F539F53AF53BD3
:10007C00F53C7A20E533A2E779047830E633F608CC
:10008C00D9FA79057838C0D0E6243320E70224D099
:10009C0020E30224FDD0D033F608D9EADAD6D00218
:1000AC00D001D000D0D0D0E022C0E0C0D0C000C081
:1000BC0001C0027A207905C3783CE613C0D030E742
:1000CC000224D030E30224FDF618D0D0D9EC790408
:1000DC007833E613F618D9FADADBD002D001D00067
:1000EC00D0D0D0E022C0E0C0D0E5302534F530E5EA
:1000FC00313535F531E5323536F532E5333537F511
:10010C0033D0D0D0E022C0E0C0D0C3E5309534F578
:10011C0030E5319535F531E5329536F532E53395E7
:10012C0037F533D0D0D0E022C0E0C0D0C3E5309555
:10013C0034E5319535E5329536E53395379200D077
:10014C00D0D0E022C0E0C0D0C3E5349530E5359581
:10015C0031E5369532E53795339200D0D0D0E02298
:10016C00C0E0C0D0C200C3E53495307014E53595BD
:10017C0031700EE53695327008E53795337002D242
:10018C0000D0D0D0E02212016C20000302015022DA
:10019C0012016C20000302013422C0E0C0F0C0D078
:1001AC00C000C001C002C003E5308534F0A4F8A93A
:1001BC00F0E5318534F0A429F9E435F0FAE5308521
:1001CC0035F0A429F9E5F03AFAE433FBE53285344D
:1001DC00F0A42AFAE5F03BFBE5318535F0A42AFAC8
:1001EC00E5F03BFBE5308536F0A42AFAE5F03BFB65
:1001FC00E5338534F0A42BFBE5328535F0A42BFBDD
:10020C00E5318536F0A42BFBE5308537F0A42BFBCC
:10021C008B338A3289318830D003D002D001D000A0
:10022C00D0D0D0F0D0E022C0E0C0D0C000C001C01F
:10023C0002C003C0047C20E4F8F9FAFBC3E53033B8
:10024C00F530E53133F531E53233F532E53333F55D
:10025C0033E833F8E933F9EA33FAEB33FBC3E895C7
:10026C0034E99535EA9536EB95374013E89534F833
:10027C00E99535F9EA9536FAEB9537FB433001DC15
:10028C00BBD004D003D002D001D000D0D0D0E0221B
:10029C0085303485313585323685333722E530C5A6
:1002AC0034F530E531C535F531E532C536F532E595
:0602BC0033C537F53322C3
:1002C200C00078B10000D8FCD00022C000C0017983
:1002D2002D78A6D8FED9FADAF6D001D00022D2B310
:1002E2001202C2C2B322A2E792B7A2E692B6A2E576
:1002F20092B5A2E492B41202E01202C2A2E392B751
:10030200A2E292B6A2E192B5A2E092B41202E02277
:10031200D2B20202E8C2B20202E8C2B374331203DA
:100322001774331203177432120317742812031747
:10033200740C1203177401120317C0027A0212021C
:10034200CDD00222E4936006120312A380F6224467
:10035200404480020317C0E0E8C4540F4430120343
:1003620012E8540F4430120312D0E0225065726931
:100372006F6420286E73293A202020004E6F20736C
:1003820069676E616C202020202020004E6F207350
:1003920069676E616C20543100C000A83C1203589A
:1003A200D000C000A83B120358D000C000A83A12E7
:1003B2000358D000C000A839120358D000C000A8CA
:1003C20038120358D00022E58954F04401F58975AA
:1003D2008CEA758A6775F4EA75F267D2A9C28C2233
:1003E200B2913275C80075CB0075CA00D2AD22E554
:1003F20089540F4410F589758D00758B0075F500D1
:1004020075F300C28B22D2CA20C5FDC0E07401146C
:10041200120351D0E0C0E07421120312D0E085CD66
:100422003D753E01753F8785CC40C2CA22853D306D
:10043200853E31853F328540337534FD75354375D0
:1004420036037537001201A67534C375359E7536AD
:10045200267537001200F185303D85313E85323FE9
:1004620085334022C002AA3D1202CDD002C002AAA8
:100472003E1202CDD002C002AA3F1202CDD002C06B
:1004820002AA401202CDD002221203E51203C912BF
:1004920003F112031CD2AF1204082275817F1204E9
:1004A2008BD280D281C201C28C754100754200C0DC
:1004B200E0740114120353D0E012042FE53EA2E3CC
:1004C2009201400975F4EA75F2670204D575F4EBFE
:1004D20075F26ED28C1204E2C28C1204660204BB64
:1004E200C2CA75CC0075CD00C2CFD2CA20CF672058
:1004F20080FA20CF613080FAC2CA75CC0075CD0077
:10050200C2CFD2CA20CF6F2080FA20CF693080FAC2
:10051200C2CA75349B7535B075360075370085CC07
:100522003085CD317532007533001201A67534E87D
:1005320075350375360075370012023375348075D0
:10054200352C75360375370012013420002820013E
:10055200080541020561020578E54160021541C0C6
:10056200E0740114120353D0E085413012058E125B
:10057200002C12039B22C0E0740F14120351D0E02E
:10058200C0E07421120312D0E002059875310075A3
:10059200320075330022C28E758B00758D00C28FBA
:1005A200D28E208F672081FA208F613081FAC28E2D
:1005B200758B00758D00C28FD28E208F6F2081FACD
:1005C200208F693081FAC28E75349B7535B07536CD
:1005D20000753700858B30858D317532007533009B
:1005E2001201A67534E875350375360075370012A9
:1005F200023375348075352C753603753700120158
:1006020034200028200108054202061702062EE5C2
:100612004260021542C0E0740114120351D0E08519
:10062200423012064412002C12039B22C0E0740FC7
:1006320014120351D0E0C0E07421120312D0E00280
:0C06420004E275310075320075330022AF
:00000001FF
