:03000000020525D1
:03000B000203E20B
:03001B000203E5F8
:01002B0032A2
:10002C00C0E0C0D0C000C001C002E4F538F539F51D
:10003C003AF53BF53C7A20E533A2E779047830E6D3
:10004C0033F608D9FA79057838E636D4F608D9F9B2
:10005C00DAE5D002D001D000D0D0D0E022C0E0C090
:10006C00D0C000C001C002E4F538F539F53AF53BD3
:10007C00F53C7A20E533A2E779047830E633F608CC
:10008C00D9FA79057838C0D0E6243320E70224D099
:10009C0020E30224FDD0D033F608D9EADAD6D00218
:1000AC00D001D000D0D0D0E022C0E0C0D0C000C081
:1000BC0001C0027A207905C3783CE613C0D030E742
:1000CC000224D030E30224FDF618D0D0D9EC790408
:1000DC007833E613F618D9FADADBD002D001D00067
:1000EC00D0D0D0E022C0E0C0D0E5302534F530E5EA
:1000FC00313535F531E5323536F532E5333537F511
:10010C0033D0D0D0E022C0E0C0D0C3E5309534F578
:10011C0030E5319535F531E5329536F532E53395E7
:10012C0037F533D0D0D0E022C0E0C0D0C3E5309555
:10013C0034E5319535E5329536E53395379200D077
:10014C00D0D0E022C0E0C0D0C3E5349530E5359581
:10015C0031E5369532E53795339200D0D0D0E02298
:10016C00C0E0C0D0C200C3E53495307014E53595BD
:10017C0031700EE53695327008E53795337002D242
:10018C0000D0D0D0E02212016C20000302015022DA
:10019C0012016C20000302013422C0E0C0F0C0D078
:1001AC00C000C001C002C003E5308534F0A4F8A93A
:1001BC00F0E5318534F0A429F9E435F0FAE5308521
:1001CC0035F0A429F9E5F03AFAE433FBE53285344D
:1001DC00F0A42AFAE5F03BFBE5318535F0A42AFAC8
:1001EC00E5F03BFBE5308536F0A42AFAE5F03BFB65
:1001FC00E5338534F0A42BFBE5328535F0A42BFBDD
:10020C00E5318536F0A42BFBE5308537F0A42BFBCC
:10021C008B338A3289318830D003D002D001D000A0
:10022C00D0D0D0F0D0E022C0E0C0D0C000C001C01F
:10023C0002C003C0047C20E4F8F9FAFBC3E53033B8
:10024C00F530E53133F531E53233F532E53333F55D
:10025C0033E833F8E933F9EA33FAEB33FBC3E895C7
:10026C0034E99535EA9536EB95374013E89534F833
:10027C00E99535F9EA9536FAEB9537FB433001DC15
:10028C00BBD004D003D002D001D000D0D0D0E0221B
:10029C0085303485313585323685333722E530C5A6
:1002AC0034F530E531C535F531E532C536F532E595
:0602BC0033C537F53322C3
:1002C200C00078B10000D8FCD00022C000C0017983
:1002D2002D78A6D8FED9FADAF6D001D00022D2B310
:1002E2001202C2C2B322A2E792B7A2E692B6A2E576
:1002F20092B5A2E492B41202E01202C2A2E392B751
:10030200A2E292B6A2E192B5A2E092B41202E02277
:10031200D2B20202E8C2B20202E8C2B374331203DA
:100322001774331203177432120317742812031747
:10033200740C1203177401120317C0027A0212021C
:10034200CDD00222E4936006120312A380F6224467
:10035200404480020317C0E0E8C4540F4430120343
:1003620012E8540F4430120312D0E0225065726931
:100372006F6420286E73293A202020004E6F20736C
:1003820069676E616C202020202020004E6F207350
:1003920069676E616C20543100C000A83C1203589A
:1003A200D000C000A83B120358D000C000A83A12E7
:1003B2000358D000C000A839120358D000C000A8CA
:1003C20038120358D00022E58954F04401F58975AA
:1003D2008CEA758A6775F4EA75F267D2A9C28C2233
:1003E200B29132D2A0C0E0740514120353D0E0C01F
:1003F200E07435120312D0E0C0027AFA1202CDD0B4
:1004020002C0E0740614120353D0E0C0E074361246
:100412000312D0E0C0027AFA1202CDD002C0E07418
:100422000714120353D0E0C0E07437120312D0E075
:10043200C0027AFA1202CDD002C0E074081412038C
:1004420053D0E0C0E07438120312D0E0C0027AFA4E
:100452001202CDD002C0E0740914120353D0E0C0DE
:10046200E07439120312D0E032E589540F4410F5DA
:1004720089758D00758B0075F50075F300D2ABC2DE
:100482008E2275C80075CB0075CA00D2AD22D2CAC1
:1004920020C5FDC0E0740114120351D0E0C0E07425
:1004A20021120312D0E085CD3D753E01753F87854F
:1004B200CC40C2CA22853D30853E31853F328540DF
:1004C200337534FD7535437536037537001201A651
:1004D2007534C375359E7536267537001200F18561
:1004E200303D85313E85323F85334022C002AA3DF0
:1004F2001202CDD002C002AA3E1202CDD002C00228
:10050200AA3F1202CDD002C002AA401202CDD002EE
:10051200221204841203C912046B12031CD2AF12FA
:1005220004902275817F120513D280D281C201C24A
:100532008CC202754100754200C2A0C0E074011471
:10054200120353D0E01204B7E53EA2E39201400940
:1005520075F4EA75F26702056175F4EB75F26ED215
:100562008ED28C12058AC28C1204EE020547C28F0B
:10057200C202C0E0740514120353D0E0C0E0742438
:10058200120312D0E00205472002E3C2CA75CC0072
:1005920075CD00C2CFD2CA20CF672080FA20CF61AA
:1005A2003080FAC2CA75CC0075CD00C2CFD2CA2043
:1005B200CF752080FA20CF6F3080FAC2CA75349B83
:1005C2007535B075360075370085CC3085CD3175FF
:1005D20032007533001201A67534E875350375369D
:1005E2000075370012023375348075352C75360369
:1005F20075370012013420002E2001080541020641
:100602000C020629E54160021541C0E07401141292
:100612000353D0E085413012063F12002CC000A8DF
:1006220041120358D00022C0E0740F14120351D0BB
:10063200E0C0E07421120312D0E0020649753100D5
:1006420075320075330022C2CA75CC0075CD00C266
:10065200CFD2CA20CF672081FA20CF613081FAC27F
:10066200CA75CC0075CD00C2CFD2CA20CF75208109
:10067200FA20CF6F3081FAC2CA75349B7535B075D6
:10068200360075370085CC3085CD31753200753333
:10069200001201A67534E87535037536007537000A
:1006A20012023375348075352C7536037537001296
:1006B200013420002E20010805420206C80206E588
:1006C200E54260021542C0E0740114120351D0E009
:1006D2008542301206FB12002CC000A842120358B9
:1006E200D00022C0E0740F14120351D0E0C0E074B5
:1006F20021120312D0E002058A75310075320075AD
:030702003300229F
:00000001FF
