:030000000204ED0A
:03000B00020409E3
:03001B0002040CD0
:01002B0032A2
:10002C00C0E0C0D0C000C001C002E4F538F539F51D
:10003C003AF53BF53C7A20E533A2E779047830E6D3
:10004C0033F608D9FA79057838E636D4F608D9F9B2
:10005C00DAE5D002D001D000D0D0D0E022C0E0C090
:10006C00D0C000C001C002E4F538F539F53AF53BD3
:10007C00F53C7A20E533A2E779047830E633F608CC
:10008C00D9FA79057838C0D0E6243320E70224D099
:10009C0020E30224FDD0D033F608D9EADAD6D00218
:1000AC00D001D000D0D0D0E022C0E0C0D0C000C081
:1000BC0001C0027A207905C3783CE613C0D030E742
:1000CC000224D030E30224FDF618D0D0D9EC790408
:1000DC007833E613F618D9FADADBD002D001D00067
:1000EC00D0D0D0E022C0E0C0D0E5302534F530E5EA
:1000FC00313535F531E5323536F532E5333537F511
:10010C0033D0D0D0E022C0E0C0D0C3E5309534F578
:10011C0030E5319535F531E5329536F532E53395E7
:10012C0037F533D0D0D0E022C0E0C0D0C3E5309555
:10013C0034E5319535E5329536E53395379200D077
:10014C00D0D0E022C0E0C0D0C3E5349530E5359581
:10015C0031E5369532E53795339200D0D0D0E02298
:10016C00C0E0C0D0C200C3E53495307014E53595BD
:10017C0031700EE53695327008E53795337002D242
:10018C0000D0D0D0E02212016C20000302015022DA
:10019C0012016C20000302013422C0E0C0F0C0D078
:1001AC00C000C001C002C003E5308534F0A4F8A93A
:1001BC00F0E5318534F0A429F9E435F0FAE5308521
:1001CC0035F0A429F9E5F03AFAE433FBE53285344D
:1001DC00F0A42AFAE5F03BFBE5318535F0A42AFAC8
:1001EC00E5F03BFBE5308536F0A42AFAE5F03BFB65
:1001FC00E5338534F0A42BFBE5328535F0A42BFBDD
:10020C00E5318536F0A42BFBE5308537F0A42BFBCC
:10021C008B338A3289318830D003D002D001D000A0
:10022C00D0D0D0F0D0E022C0E0C0D0C000C001C01F
:10023C0002C003C0047C20E4F8F9FAFBC3E53033B8
:10024C00F530E53133F531E53233F532E53333F55D
:10025C0033E833F8E933F9EA33FAEB33FBC3E895C7
:10026C0034E99535EA9536EB95374013E89534F833
:10027C00E99535F9EA9536FAEB9537FB433001DC15
:10028C00BBD004D003D002D001D000D0D0D0E0221B
:10029C0085303485313585323685333722E530C5A6
:1002AC0034F530E531C535F531E532C536F532E595
:0602BC0033C537F53322C3
:1002C200C00078B10000D8FCD00022C000C0017983
:1002D2002D78A6D8FED9FADAF6D001D00022D2B310
:1002E2001202C2C2B322A2E792B7A2E692B6A2E576
:1002F20092B5A2E492B41202E01202C2A2E392B751
:10030200A2E292B6A2E192B5A2E092B41202E02277
:10031200D2B20202E8C2B20202E8C2B374331203DA
:100322001774331203177432120317742812031747
:10033200740C1203177401120317C0027A0212021C
:10034200CDD00222E4936006120312A380F6224467
:10035200404480020317C0E0E8C4540F4430120343
:1003620012E8540F4430120312D0E0225065726931
:100372006F6420286E73293A202020004E6F20736C
:1003820069676E616C202020202020004E6F207350
:1003920069676E616C2054310053636F7265313A44
:1003A2002030300053636F7265323A203030005093
:1003B2006C6179657220202057696E7321202000BC
:1003C200C000A83C120358D000C000A83B1203583A
:1003D200D000C000A83A120358D000C000A83912B9
:1003E2000358D000C000A838120358D00022E58973
:1003F20054F04401F589758CEA758A6775F4EA75DB
:10040200F267D2A9C28C22B29132C0E0C0D0053DBF
:10041200E53D7002053EE53DB4E80CE53EB4030758
:10042200D202E4F53DF53ED0D0D0E032E589540F5A
:100432004410F589758D53758B34E4F53DF53E75A1
:10044200F55375F334D2ABC28E2275C80075CB005A
:1004520075CA00D2AD22D2CA20C5FDC0E074011413
:10046200120351D0E0C0E07421120312D0E085CD16
:100472003F75400175418785CC42C2CA22853F3013
:100482008540318541328542337534FD753543757A
:1004920036037537001201A67534C375359E75365D
:1004A200267537001200F185303F85314085324193
:1004B20085334222C002AA3F1202CDD002C002AA54
:1004C200401202CDD002C002AA411202CDD002C017
:1004D20002AA421202CDD0022212044C1203F012DE
:1004E200042E12031CD2AF1204582275817F12040B
:1004F200DBD280D281C201C28CC202754300754434
:1005020000C0E0740114120353D0E0C083C082C063
:10051200E090039B120346D0E0D082D083C0E07407
:100522000114120351D0E0C083C082C0E09003A640
:10053200120346D0E0D082D083C2A0C0E07401147E
:10054200120353D0E012047FE540A2E39201400976
:1005520075F4EA75F26702056175F4EB75F26ED215
:100562008ED28C1206658543307531007532007566
:100572003300753405753500753600753700120184
:100582006C200015854430753100753200753300DA
:1005920012016C20004302061B7401120317C002F1
:1005A2007A021202CDD002C0E0740114120353D0B9
:1005B200E0C083C082C0E09003B1120346D0E0D015
:1005C20082D083C0E0740714120353D0E0C0E074F9
:1005D20031120312D0E00206477401120317C0025F
:1005E2007A021202CDD002C0E0740114120353D079
:1005F200E0C083C082C0E09003B1120346D0E0D0D5
:1006020082D083C0E0740714120353D0E0C0E074B8
:1006120032120312D0E0020647C0027AFA1202CD69
:10062200D002C0027AFA1202CDD002C0027AFA12C5
:1006320002CDD002C0027AFA1202CDD002C28C12CE
:1006420004B6020547020647C28EC202C28CC0022D
:100652007AFA1202CDD002C0027AFA1202CDD00288
:100662000205472002E2C2CA75CC0075CD00C2CF96
:10067200D2CA20CF412080FA20CF3B3080FAC2CAB2
:1006820075CC0075CD00C2CFD2CA20CF692080FAC6
:1006920020CF633080FAC2CA75349B7535B0753687
:1006A2000075370085CC3085CD3175320075330049
:1006B2001201A60206BB0206F87534E87535037509
:1006C200360075370012023375345075352275368F
:1006D2000675370012015020004F7534287535FF1A
:1006E200753605753700120134200030C28C2001A6
:1006F20008054302070102071EE54360021543C0D5
:10070200E0740914120353D0E0854330120721121A
:10071200002CC000A843120358D0002202072B75F8
:10072200310075320075330022C0027A641202CDA4
:10073200D002C2CA75CC0075CD00C2CFD2CA20CFBA
:10074200182081FA20CF123081FAC2CA75CC007506
:10075200CD00C2CFD2CA02075E0207C420CF6320F7
:1007620081FA20CF5D3081FAC2CA75349B7535B0EB
:1007720075360075370085CC3085CD317532007500
:1007820033001201A67534E87535037536007537E6
:10079200001202337534C07535B6753606753700EA
:1007A2001201502000427534D875353575360675FC
:1007B2003700120134200030C28C200108054402A7
:1007C20007CD0207EAE54460021544C0E07409144B
:1007D200120351D0E08544301207ED12002CC00004
:1007E200A844120358D00022020665753100753202
:0507F200007533002238
:00000001FF
