:030000000204C631
:03000B000203E20B
:03001B000203E5F8
:01002B0032A2
:10002C00C0E0C0D0C000C001C002E4F538F539F51D
:10003C003AF53BF53C7A20E533A2E779047830E6D3
:10004C0033F608D9FA79057838E636D4F608D9F9B2
:10005C00DAE5D002D001D000D0D0D0E022C0E0C090
:10006C00D0C000C001C002E4F538F539F53AF53BD3
:10007C00F53C7A20E533A2E779047830E633F608CC
:10008C00D9FA79057838C0D0E6243320E70224D099
:10009C0020E30224FDD0D033F608D9EADAD6D00218
:1000AC00D001D000D0D0D0E022C0E0C0D0C000C081
:1000BC0001C0027A207905C3783CE613C0D030E742
:1000CC000224D030E30224FDF618D0D0D9EC790408
:1000DC007833E613F618D9FADADBD002D001D00067
:1000EC00D0D0D0E022C0E0C0D0E5302534F530E5EA
:1000FC00313535F531E5323536F532E5333537F511
:10010C0033D0D0D0E022C0E0C0D0C3E5309534F578
:10011C0030E5319535F531E5329536F532E53395E7
:10012C0037F533D0D0D0E022C0E0C0D0C3E5309555
:10013C0034E5319535E5329536E53395379200D077
:10014C00D0D0E022C0E0C0D0C3E5349530E5359581
:10015C0031E5369532E53795339200D0D0D0E02298
:10016C00C0E0C0D0C200C3E53495307014E53595BD
:10017C0031700EE53695327008E53795337002D242
:10018C0000D0D0D0E02212016C20000302015022DA
:10019C0012016C20000302013422C0E0C0F0C0D078
:1001AC00C000C001C002C003E5308534F0A4F8A93A
:1001BC00F0E5318534F0A429F9E435F0FAE5308521
:1001CC0035F0A429F9E5F03AFAE433FBE53285344D
:1001DC00F0A42AFAE5F03BFBE5318535F0A42AFAC8
:1001EC00E5F03BFBE5308536F0A42AFAE5F03BFB65
:1001FC00E5338534F0A42BFBE5328535F0A42BFBDD
:10020C00E5318536F0A42BFBE5308537F0A42BFBCC
:10021C008B338A3289318830D003D002D001D000A0
:10022C00D0D0D0F0D0E022C0E0C0D0C000C001C01F
:10023C0002C003C0047C20E4F8F9FAFBC3E53033B8
:10024C00F530E53133F531E53233F532E53333F55D
:10025C0033E833F8E933F9EA33FAEB33FBC3E895C7
:10026C0034E99535EA9536EB95374013E89534F833
:10027C00E99535F9EA9536FAEB9537FB433001DC15
:10028C00BBD004D003D002D001D000D0D0D0E0221B
:10029C0085303485313585323685333722E530C5A6
:1002AC0034F530E531C535F531E532C536F532E595
:0602BC0033C537F53322C3
:1002C200C00078B10000D8FCD00022C000C0017983
:1002D2002D78A6D8FED9FADAF6D001D00022D2B310
:1002E2001202C2C2B322A2E792B7A2E692B6A2E576
:1002F20092B5A2E492B41202E01202C2A2E392B751
:10030200A2E292B6A2E192B5A2E092B41202E02277
:10031200D2B20202E8C2B20202E8C2B374331203DA
:100322001774331203177432120317742812031747
:10033200740C1203177401120317C0027A0212021C
:10034200CDD00222E4936006120312A380F6224467
:10035200404480020317C0E0E8C4540F4430120343
:1003620012E8540F4430120312D0E0225065726931
:100372006F6420286E73293A202020004E6F20736C
:1003820069676E616C202020202020004E6F207350
:1003920069676E616C20543100C000A83C1203589A
:1003A200D000C000A83B120358D000C000A83A12E7
:1003B2000358D000C000A839120358D000C000A8CA
:1003C20038120358D00022E58954F04401F58975AA
:1003D2008CEA758A6775F4EA75F267D2A9C28C2233
:1003E200B29132C0E0C0D0053DE53D7002053EE568
:1003F2003DB4E80CE53EB40307D202E4F53DF53E18
:10040200D0D0D0E032E589540F4410F589758D5370
:10041200758B34E4F53DF53E75F55375F334D2AB87
:10042200C28E2275C80075CB0075CA00D2AD22D229
:10043200CA20C5FDC0E0740114120351D0E0C0E02F
:100442007421120312D0E085CD3F754001754187BA
:1004520085CC42C2CA22853F3085403185413285F2
:1004620042337534FD753543753603753700120115
:10047200A67534C375359E7536267537001200F1A0
:1004820085303F85314085324185334222C002AA00
:100492003F1202CDD002C002AA401202CDD002C049
:1004A20002AA411202CDD002C002AA421202CDD04B
:1004B20002221204251203C912040712031CD2AF2E
:1004C2001204312275817F1204B4D280D281C2011A
:1004D200C28CC202754300754400C2A0C0E0740120
:1004E20014120353D0E0120458E540A2E3920140F3
:1004F2000975F4EA75F26702050275F4EB75F26E9E
:10050200D28ED28C12053FC28C12048F0204E8C232
:100512008EC202C28CC0027AFA1202CDD002C0028E
:100522007AFA1202CDD002C0E0740C14120353D036
:10053200E0C0E07424120312D0E00204E82002CFEB
:10054200C2CA75CC0075CD00C2CFD2CA20CF6920F5
:1005520080FA20CF633080FAC2CA75CC0075CD0014
:10056200C2CFD2CA20CF772080FA20CF713080FA52
:10057200C2CA75349B7535B075360075370085CCA7
:100582003085CD317532007533001201A67534E81D
:100592007535037536007537001202337534807570
:1005A200352C753603753700120134200030C28CA9
:1005B20020010805430205C30205E0E54360021578
:1005C20043C0E0740114120353D0E0854330120596
:1005D200F612002CC000A843120358D00022C0E03B
:1005E200740F14120351D0E0C0E07421120312D030
:1005F200E002060075310075320075330022C2CA6E
:1006020075CC0075CD00C2CFD2CA20CF692081FA45
:1006120020CF633081FAC2CA75CC0075CD00C2CF3B
:10062200D2CA20CF772081FA20CF713081FAC2CA94
:1006320075349B7535B075360075370085CC3085BD
:10064200CD317532007533001201A67534E8753567
:100652000375360075370012023375348075352CF8
:10066200753603753700120134200030C28C200128
:1006720008054402068102069EE54460021544C054
:10068200E0740114120351D0E08544301206B41212
:10069200002CC000A844120358D00022C0E0740FFE
:1006A20014120351D0E0C0E07421120312D0E00210
:0C06B200053F75310075320075330022E1
:00000001FF
