:0300000002080EE5
:03000B0002042CC0
:03001B0002042FAD
:01002B0032A2
:10002C00C0E0C0D0C000C001C002E4F538F539F51D
:10003C003AF53BF53C7A20E533A2E779047830E6D3
:10004C0033F608D9FA79057838E636D4F608D9F9B2
:10005C00DAE5D002D001D000D0D0D0E022C0E0C090
:10006C00D0C000C001C002E4F538F539F53AF53BD3
:10007C00F53C7A20E533A2E779047830E633F608CC
:10008C00D9FA79057838C0D0E6243320E70224D099
:10009C0020E30224FDD0D033F608D9EADAD6D00218
:1000AC00D001D000D0D0D0E022C0E0C0D0C000C081
:1000BC0001C0027A207905C3783CE613C0D030E742
:1000CC000224D030E30224FDF618D0D0D9EC790408
:1000DC007833E613F618D9FADADBD002D001D00067
:1000EC00D0D0D0E022C0E0C0D0E5302534F530E5EA
:1000FC00313535F531E5323536F532E5333537F511
:10010C0033D0D0D0E022C0E0C0D0C3E5309534F578
:10011C0030E5319535F531E5329536F532E53395E7
:10012C0037F533D0D0D0E022C0E0C0D0C3E5309555
:10013C0034E5319535E5329536E53395379200D077
:10014C00D0D0E022C0E0C0D0C3E5349530E5359581
:10015C0031E5369532E53795339200D0D0D0E02298
:10016C00C0E0C0D0C200C3E53495307014E53595BD
:10017C0031700EE53695327008E53795337002D242
:10018C0000D0D0D0E02212016C20000302015022DA
:10019C0012016C20000302013422C0E0C0F0C0D078
:1001AC00C000C001C002C003E5308534F0A4F8A93A
:1001BC00F0E5318534F0A429F9E435F0FAE5308521
:1001CC0035F0A429F9E5F03AFAE433FBE53285344D
:1001DC00F0A42AFAE5F03BFBE5318535F0A42AFAC8
:1001EC00E5F03BFBE5308536F0A42AFAE5F03BFB65
:1001FC00E5338534F0A42BFBE5328535F0A42BFBDD
:10020C00E5318536F0A42BFBE5308537F0A42BFBCC
:10021C008B338A3289318830D003D002D001D000A0
:10022C00D0D0D0F0D0E022C0E0C0D0C000C001C01F
:10023C0002C003C0047C20E4F8F9FAFBC3E53033B8
:10024C00F530E53133F531E53233F532E53333F55D
:10025C0033E833F8E933F9EA33FAEB33FBC3E895C7
:10026C0034E99535EA9536EB95374013E89534F833
:10027C00E99535F9EA9536FAEB9537FB433001DC15
:10028C00BBD004D003D002D001D000D0D0D0E0221B
:10029C0085303485313585323685333722E530C5A6
:1002AC0034F530E531C535F531E532C536F532E595
:0602BC0033C537F53322C3
:1002C200C00078B10000D8FCD00022C000C0017983
:1002D2002D78A6D8FED9FADAF6D001D00022D2B310
:1002E2001202C2C2B322A2E792B7A2E692B6A2E576
:1002F20092B5A2E492B41202E01202C2A2E392B751
:10030200A2E292B6A2E192B5A2E092B41202E02277
:10031200D2B20202E8C2B20202E8C2B374331203DA
:100322001774331203177432120317742812031747
:10033200740C1203177401120317C0027A0212021C
:10034200CDD00222E4936006120312A380F6224467
:10035200404480020317C0E0E8C4540F4430120343
:1003620012E8540F4430120312D0E0225065726931
:100372006F6420286E73293A202020004E6F20736C
:1003820069676E616C202020202020004E6F207350
:1003920069676E616C2054310053636F7265313A44
:1003A2002030300053636F7265323A203030005093
:1003B2006C6179657220202057696E7321202000BC
:1003C200506C617920616761696E00486F6C6420CE
:1003D200424F4F5420746F005374617274206761EE
:1003E2006D6500C000A83C120358D000C000A83BB5
:1003F200120358D000C000A83A120358D000C0001F
:10040200A839120358D000C000A838120358D000EF
:1004120022E58954F04401F589758CEA758A67757D
:10042200F4EA75F267D2A9C28C22B29132C0E0C05E
:10043200D0053DE53D7002053EE53DB4E80CE53EE4
:10044200B40307D202E4F53DF53ED0D0D0E032E568
:1004520089540F4410F589758D53758B34E4F53D3D
:10046200F53E75F55375F334D2ABC28E2275C800D2
:1004720075CB0075CA00D2AD22D2CAC0E074011495
:10048200120351D0E0C0E07421120312D0E085CDF6
:100492003F75400175418785CC42C2CA02084F852B
:1004A2003F308540318541328542337534FD7535A3
:1004B200437536037537001201A67534C375359E30
:1004C2007536267537001200F185303F853140853B
:1004D200324185334222C28C758C9D758AD275F465
:1004E2009D75F2D2D28C22C28C758C97758AE87572
:1004F200F49775F2E8D28C22C28C758CA8758A8D1D
:1005020075F4A875F28DD28C22C28C758CA3758A73
:100512004C75F4A375F24CD28C22C28C758CAD75DD
:100522008A6775F4AD75F267D28C22C28C758CBA6B
:10053200758A8C75F4BA75F28CD28C22C28C758C49
:10054200BE758A8C75F4BE75F28CD28C22C002AA5A
:100552003F1202CDD002C002AA401202CDD002C088
:1005620002AA411202CDD002C002AA421202CDD08A
:1005720002220204D802047B12053EC0027AFA1259
:1005820002CDD002C0027A531202CDD00230C5E5AC
:100592001204FAC0027AA81202CDD00212051CC0BF
:1005A200027AA81202CDD00212052DC0027AA81238
:1005B20002CDD00230C5BE12053EC0027A541202EC
:1005C200CDD00212052DC0027A541202CDD00212F1
:1005D200051CC0027AA41202CDD0021204FAC00293
:1005E2007AA41202CDD00230C58B120574C0027AF1
:1005F200FA1202CDD002C0027A531202CDD00212F8
:1006020007F1120574C0027AA81202CDD0021205B7
:100612001CC0027AA81202CDD00212053EC0027A94
:10062200FA1202CDD00230C536C0027A531202CD80
:10063200D00212052DC0027AA81202CDD0021207F2
:10064200F112051CC0027AA81202CDD0021207F1E3
:100652001204FAC0027AFA1202CDD0020206640231
:1006620006B5C0027A531202CDD00230C54512043B
:10067200FAC0027A541202CDD0021207F11204FA21
:10068200C0027A541202CDD00212051CC0027AA80E
:100692001202CDD00212052DC0027AFA1202CDD07A
:1006A2000230C50FC0027A531202CDD00212053EAB
:1006B2000206B8020577C0027AFA1202CDD002C051
:1006C200027A531202CDD00230C5E812051CC002D4
:1006D2007AFA1202CDD002C0027A531202CDD002AF
:1006E20030C5D0120574C0027AFA1202CDD002C00F
:1006F200027A531202CDD0021207F130C5B51205AB
:1007020074C0027AFA1202CDD002C0027AFA120240
:10071200CDD00230C59DC0027AA71202CDD00212FE
:10072200057A12051CC0027A8C1202CDD002120781
:10073200F112051CC0027A8C1202CDD0021207F10E
:1007420012051CC0027A8C1202CDD0021207F112DD
:10075200051CC0027AFA1202CDD002C0027A9612A9
:1007620002CDD0021207F11204E9C0027AFA120293
:10077200CDD002C0027A961202CDD0021207F11237
:10078200050BC0027AFA1202CDD002C0027A96128A
:1007920002CDD0021207F112051CC0027AFA12022F
:1007A200CDD0021207F112050BC0027A8C1202CDD3
:1007B200D0021207F112051CC0027AFA1202CDD041
:1007C20002C0027AFA1202CDD002C0027AFA1202F2
:1007D200CDD002C0027AFA1202CDD002C0027AFA59
:1007E2001202CDD002C0027AFA1202CDD00222C287
:1007F2008CC0027A081202CDD002D28C2212046F6F
:1008020012041312045112031CD2AF2275817F12FB
:1008120007FFC0E0740114120353D0E0C083C0820A
:10082200C0E09003CD120346D0E0D082D083C0E076
:10083200740114120351D0E0C083C082C0E090035F
:10084200DA120346D0E0D082D08302057A74011214
:100852000317C0027A051202CDD002D280D281C221
:1008620001C28CC202754300754400C0E0740114D9
:10087200120353D0E0C083C082C0E090039B1203F6
:1008820046D0E0D082D083C0E0740114120351D06C
:10089200E0C083C082C0E09003A6120346D0E0D03D
:1008A20082D083C2A0C0E0740114120353D0E012BC
:1008B20004A1E540A2E39201400975F4EA75F267EA
:1008C2000208CB75F4EB75F26ED28ED28C120A143A
:1008D2008543307531007532007533007534057506
:1008E200350075360075370012016C2000158544FD
:1008F2003075310075320075330012016C200064CE
:100902000209C77401120317C0027A021202CDD083
:1009120002C0E0740114120353D0E0C083C082C04D
:10092200E09003B1120346D0E0D082D083C0E074DD
:100932000714120353D0E0C0E07431120312D0E066
:10094200C0E0740114120351D0E0C083C082C0E041
:100952009003C2120346D0E0D082D083120724C291
:100962008C0209F37401120317C0027A021202CD3B
:10097200D002C0E0740114120353D0E0C083C082DD
:10098200C0E09003B1120346D0E0D082D083C0E031
:10099200740714120353D0E0C0E07432120312D071
:1009A200E0C0E0740114120351D0E0C083C082C0E1
:1009B200E09003C2120346D0E0D082D08312072413
:1009C200C28C0209F3C0027AFA1202CDD002C0022E
:1009D2007AFA1202CDD002C0027AFA1202CDD00205
:1009E200C0027AFA1202CDD002C28C12054F02085E
:1009F200B13084FD02084FC28EC202C28CC0027A9C
:100A0200FA1202CDD002C0027AFA1202CDD002024C
:100A120008B12002E2C2CA75CC0075CD00C2CFD2A5
:100A2200CA20CF412080FA20CF3B3080FAC2CA755B
:100A3200CC0075CD00C2CFD2CA20CF6C2080FA2064
:100A4200CF663080FAC2CA75349B7535B0753600F0
:100A520075370085CC3085CD317532007533001283
:100A620001A6020A6A020AAA7534E87535037536C8
:100A72000075370012023312002C7534D8753535E3
:100A820075360675370012015020004F7534107507
:100A92003503753606753700120134200030C28CDA
:100AA2002001080543020AB3020AD0E54360021599
:100AB20043C0E0740914120353D0E0854330120A94
:100AC200D312002CC000A843120358D00022020AFD
:100AD200DD75310075320075330022C0027A64126E
:100AE20002CDD002C2CA75CC0075CD00C2CFD2CA27
:100AF20020CF182081FA20CF123081FAC2CA75CCD9
:100B02000075CD00C2CFD2CA020B10020B7620CFE5
:100B1200632081FA20CF5D3081FAC2CA75349B7599
:100B220035B075360075370085CC3085CD317532DC
:100B3200007533001201A67534E875350375360069
:100B42007537001202337534C07535B675360675C1
:100B5200370012015020004275342075352A75364F
:100B620006753700120134200030C28C20010805BE
:100B720044020B7F020B9CE54460021544C0E07402
:100B82000914120351D0E0854430120B9F12002C3D
:100B9200C000A844120358D00022020A1475310082
:070BA20075320075330022DB
:00000001FF
